{
  "contractName": "MultiTransfers",
  "abi": [
    {
      "inputs": [
        {
          "internalType": "address[]",
          "name": "tokens",
          "type": "address[]"
        },
        {
          "internalType": "address[]",
          "name": "_sender",
          "type": "address[]"
        },
        {
          "internalType": "address[]",
          "name": "_receiver",
          "type": "address[]"
        },
        {
          "internalType": "uint256[]",
          "name": "_amounts",
          "type": "uint256[]"
        }
      ],
      "name": "multiTransfers",
      "outputs": [],
      "stateMutability": "nonpayable",
      "type": "function"
    }
  ],
  "bytecode": "0x608060405234801561001057600080fd5b50610418806100206000396000f3fe608060405234801561001057600080fd5b506004361061002b5760003560e01c8063f717c78214610030575b600080fd5b61004361003e366004610209565b610045565b005b60005b82518110156101825784818151811061007157634e487b7160e01b600052603260045260246000fd5b60200260200101516001600160a01b0316635698755a8583815181106100a757634e487b7160e01b600052603260045260246000fd5b60200260200101518584815181106100cf57634e487b7160e01b600052603260045260246000fd5b60200260200101518585815181106100f757634e487b7160e01b600052603260045260246000fd5b60200260200101516040518463ffffffff1660e01b815260040161011d9392919061032c565b602060405180830381600087803b15801561013757600080fd5b505af115801561014b573d6000803e3d6000fd5b505050506040513d601f19601f8201168201806040525081019061016f9190610305565b508061017a816103a5565b915050610048565b5050505050565b600082601f830112610199578081fd5b813560206101ae6101a983610381565b610350565b82815281810190858301838502870184018810156101ca578586fd5b855b858110156101fc5781356001600160a01b03811681146101ea578788fd5b845292840192908401906001016101cc565b5090979650505050505050565b6000806000806080858703121561021e578384fd5b843567ffffffffffffffff80821115610235578586fd5b61024188838901610189565b9550602091508187013581811115610257578586fd5b61026389828a01610189565b955050604087013581811115610277578485fd5b61028389828a01610189565b945050606087013581811115610297578384fd5b87019050601f810188136102a9578283fd5b80356102b76101a982610381565b81815283810190838501858402850186018c10156102d3578687fd5b8694505b838510156102f55780358352600194909401939185019185016102d7565b50979a9699509497505050505050565b600060208284031215610316578081fd5b81518015158114610325578182fd5b9392505050565b6001600160a01b039384168152919092166020820152604081019190915260600190565b604051601f8201601f1916810167ffffffffffffffff81118282101715610379576103796103cc565b604052919050565b600067ffffffffffffffff82111561039b5761039b6103cc565b5060209081020190565b60006000198214156103c557634e487b7160e01b81526011600452602481fd5b5060010190565b634e487b7160e01b600052604160045260246000fdfea2646970667358221220b5618b0379927672308f51a91515dc873c153085afb76993ee565b1b5164a83364736f6c63430008010033",
  "immutableReferences": {},
  "source": "// SPDX-License-Identifier: GPL-3.0\npragma solidity ^0.8.1;\n\nimport \"./OaxisToken.sol\";\n\ncontract MultiTransfers {\n    // function multiTransfers(\n    //     address[] memory tokens,\n    //     address[] memory _sender,\n    //     address[] memory _receiver,\n    //     uint256[] memory _amounts\n    // ) public {\n    //     for (uint256 i = 0; i < _receiver.length; i++) {\n    //         ERC20(tokens[i]).transfer2(_sender[i], _receiver[i], _amounts[i]);\n    //     }\n    // }\n\n    function multiTransfers(\n        address[] memory tokens,\n        address[] memory _sender,\n        address[] memory _receiver,\n        uint256[] memory _amounts\n    ) public {\n        for (uint256 i = 0; i < _receiver.length; i++) {\n            OaxisToken(tokens[i]).transfer2(\n                _sender[i],\n                _receiver[i],\n                _amounts[i]\n            );\n        }\n    }\n}\n",
  "sourcePath": "/Users/phuoc/Desktop/project/test/contracts/contracts/contracts/contracts/MultiTransfers.sol",
  "compiler": {
    "name": "solc",
    "version": "0.8.1+commit.df193b15.Emscripten.clang"
  },
  "schemaVersion": "3.4.1",
  "updatedAt": "2021-07-20T18:24:54.196Z",
  "networkType": "ethereum",
  "devdoc": {
    "kind": "dev",
    "methods": {},
    "version": 1
  },
  "userdoc": {
    "kind": "user",
    "methods": {},
    "version": 1
  }
}