{
  "contractName": "OaxisToken",
  "abi": [
    {
      "inputs": [
        {
          "internalType": "uint256",
          "name": "initialSupply",
          "type": "uint256"
        }
      ],
      "stateMutability": "nonpayable",
      "type": "constructor"
    },
    {
      "anonymous": false,
      "inputs": [
        {
          "indexed": true,
          "internalType": "address",
          "name": "owner",
          "type": "address"
        },
        {
          "indexed": true,
          "internalType": "address",
          "name": "spender",
          "type": "address"
        },
        {
          "indexed": false,
          "internalType": "uint256",
          "name": "value",
          "type": "uint256"
        }
      ],
      "name": "Approval",
      "type": "event"
    },
    {
      "anonymous": false,
      "inputs": [
        {
          "indexed": true,
          "internalType": "address",
          "name": "from",
          "type": "address"
        },
        {
          "indexed": true,
          "internalType": "address",
          "name": "to",
          "type": "address"
        },
        {
          "indexed": false,
          "internalType": "uint256",
          "name": "value",
          "type": "uint256"
        }
      ],
      "name": "Transfer",
      "type": "event"
    },
    {
      "inputs": [
        {
          "internalType": "address",
          "name": "owner",
          "type": "address"
        },
        {
          "internalType": "address",
          "name": "spender",
          "type": "address"
        }
      ],
      "name": "allowance",
      "outputs": [
        {
          "internalType": "uint256",
          "name": "",
          "type": "uint256"
        }
      ],
      "stateMutability": "view",
      "type": "function",
      "constant": true
    },
    {
      "inputs": [
        {
          "internalType": "address",
          "name": "spender",
          "type": "address"
        },
        {
          "internalType": "uint256",
          "name": "amount",
          "type": "uint256"
        }
      ],
      "name": "approve",
      "outputs": [
        {
          "internalType": "bool",
          "name": "",
          "type": "bool"
        }
      ],
      "stateMutability": "nonpayable",
      "type": "function"
    },
    {
      "inputs": [
        {
          "internalType": "address",
          "name": "account",
          "type": "address"
        }
      ],
      "name": "balanceOf",
      "outputs": [
        {
          "internalType": "uint256",
          "name": "",
          "type": "uint256"
        }
      ],
      "stateMutability": "view",
      "type": "function",
      "constant": true
    },
    {
      "inputs": [],
      "name": "decimals",
      "outputs": [
        {
          "internalType": "uint8",
          "name": "",
          "type": "uint8"
        }
      ],
      "stateMutability": "view",
      "type": "function",
      "constant": true
    },
    {
      "inputs": [
        {
          "internalType": "address",
          "name": "spender",
          "type": "address"
        },
        {
          "internalType": "uint256",
          "name": "subtractedValue",
          "type": "uint256"
        }
      ],
      "name": "decreaseAllowance",
      "outputs": [
        {
          "internalType": "bool",
          "name": "",
          "type": "bool"
        }
      ],
      "stateMutability": "nonpayable",
      "type": "function"
    },
    {
      "inputs": [
        {
          "internalType": "address",
          "name": "spender",
          "type": "address"
        },
        {
          "internalType": "uint256",
          "name": "addedValue",
          "type": "uint256"
        }
      ],
      "name": "increaseAllowance",
      "outputs": [
        {
          "internalType": "bool",
          "name": "",
          "type": "bool"
        }
      ],
      "stateMutability": "nonpayable",
      "type": "function"
    },
    {
      "inputs": [],
      "name": "name",
      "outputs": [
        {
          "internalType": "string",
          "name": "",
          "type": "string"
        }
      ],
      "stateMutability": "view",
      "type": "function",
      "constant": true
    },
    {
      "inputs": [],
      "name": "symbol",
      "outputs": [
        {
          "internalType": "string",
          "name": "",
          "type": "string"
        }
      ],
      "stateMutability": "view",
      "type": "function",
      "constant": true
    },
    {
      "inputs": [],
      "name": "totalSupply",
      "outputs": [
        {
          "internalType": "uint256",
          "name": "",
          "type": "uint256"
        }
      ],
      "stateMutability": "view",
      "type": "function",
      "constant": true
    },
    {
      "inputs": [
        {
          "internalType": "address",
          "name": "recipient",
          "type": "address"
        },
        {
          "internalType": "uint256",
          "name": "amount",
          "type": "uint256"
        }
      ],
      "name": "transfer",
      "outputs": [
        {
          "internalType": "bool",
          "name": "",
          "type": "bool"
        }
      ],
      "stateMutability": "nonpayable",
      "type": "function"
    },
    {
      "inputs": [
        {
          "internalType": "address",
          "name": "sender",
          "type": "address"
        },
        {
          "internalType": "address",
          "name": "recipient",
          "type": "address"
        },
        {
          "internalType": "uint256",
          "name": "amount",
          "type": "uint256"
        }
      ],
      "name": "transferFrom",
      "outputs": [
        {
          "internalType": "bool",
          "name": "",
          "type": "bool"
        }
      ],
      "stateMutability": "nonpayable",
      "type": "function"
    },
    {
      "inputs": [
        {
          "internalType": "address",
          "name": "sender",
          "type": "address"
        },
        {
          "internalType": "address",
          "name": "recipient",
          "type": "address"
        },
        {
          "internalType": "uint256",
          "name": "amount",
          "type": "uint256"
        }
      ],
      "name": "transfer2",
      "outputs": [
        {
          "internalType": "bool",
          "name": "",
          "type": "bool"
        }
      ],
      "stateMutability": "nonpayable",
      "type": "function"
    }
  ],
  "bytecode": "0x60806040523480156200001157600080fd5b5060405162000e7e38038062000e7e833981016040819052620000349162000266565b604051806040016040528060058152602001644f6178697360d81b8152506040518060400160405280600381526020016213d61560ea1b815250816003908051906020019062000086929190620001c0565b5080516200009c906004906020840190620001c0565b505050620000db33620000b9620000e260201b620002fc1760201c565b620000c99060ff16600a62000327565b620000d590846200041c565b620000e7565b5062000491565b601290565b6001600160a01b038216620001195760405162461bcd60e51b815260040162000110906200027f565b60405180910390fd5b6200012760008383620001bb565b80600260008282546200013b9190620002bf565b90915550506001600160a01b038216600090815260208190526040812080548392906200016a908490620002bf565b90915550506040516001600160a01b038316906000907fddf252ad1be2c89b69c2b068fc378daa952ba7f163c4a11628f55a4df523b3ef90620001af908590620002b6565b60405180910390a35050565b505050565b828054620001ce906200043e565b90600052602060002090601f016020900481019282620001f257600085556200023d565b82601f106200020d57805160ff19168380011785556200023d565b828001600101855582156200023d579182015b828111156200023d57825182559160200191906001019062000220565b506200024b9291506200024f565b5090565b5b808211156200024b576000815560010162000250565b60006020828403121562000278578081fd5b5051919050565b6020808252601f908201527f45524332303a206d696e7420746f20746865207a65726f206164647265737300604082015260600190565b90815260200190565b60008219821115620002d557620002d56200047b565b500190565b80825b6001808611620002ee57506200031e565b8187048211156200030357620003036200047b565b808616156200031157918102915b9490941c938002620002dd565b94509492505050565b60006200033860001984846200033f565b9392505050565b600082620003505750600162000338565b816200035f5750600062000338565b81600181146200037857600281146200038357620003b7565b600191505062000338565b60ff8411156200039757620003976200047b565b6001841b915084821115620003b057620003b06200047b565b5062000338565b5060208310610133831016604e8410600b8410161715620003ef575081810a83811115620003e957620003e96200047b565b62000338565b620003fe8484846001620002da565b8086048211156200041357620004136200047b565b02949350505050565b60008160001904831182151516156200043957620004396200047b565b500290565b6002810460018216806200045357607f821691505b602082108114156200047557634e487b7160e01b600052602260045260246000fd5b50919050565b634e487b7160e01b600052601160045260246000fd5b6109dd80620004a16000396000f3fe608060405234801561001057600080fd5b50600436106100b45760003560e01c80635698755a116100715780635698755a1461014757806370a082311461015a57806395d89b411461016d578063a457c2d714610175578063a9059cbb14610188578063dd62ed3e1461019b576100b4565b806306fdde03146100b9578063095ea7b3146100d757806318160ddd146100f757806323b872dd1461010c578063313ce5671461011f5780633950935114610134575b600080fd5b6100c16101ae565b6040516100ce91906106fd565b60405180910390f35b6100ea6100e53660046106c9565b610240565b6040516100ce91906106f2565b6100ff61025d565b6040516100ce9190610931565b6100ea61011a36600461068e565b610263565b6101276102fc565b6040516100ce919061093a565b6100ea6101423660046106c9565b610301565b6100ea61015536600461068e565b610355565b6100ff61016836600461063b565b61036c565b6100c161038b565b6100ea6101833660046106c9565b61039a565b6100ea6101963660046106c9565b610409565b6100ff6101a936600461065c565b61041d565b6060600380546101bd9061096c565b80601f01602080910402602001604051908101604052809291908181526020018280546101e99061096c565b80156102365780601f1061020b57610100808354040283529160200191610236565b820191906000526020600020905b81548152906001019060200180831161021957829003601f168201915b5050505050905090565b600061025461024d610448565b848461044c565b50600192915050565b60025490565b6000610270848484610500565b6001600160a01b038416600090815260016020526040812081610291610448565b6001600160a01b03166001600160a01b03168152602001908152602001600020549050828110156102dd5760405162461bcd60e51b81526004016102d49061081b565b60405180910390fd5b6102f1856102e9610448565b85840361044c565b506001949350505050565b601290565b600061025461030e610448565b84846001600061031c610448565b6001600160a01b03908116825260208083019390935260409182016000908120918b16815292529020546103509190610948565b61044c565b6000610362848484610500565b5060019392505050565b6001600160a01b0381166000908152602081905260409020545b919050565b6060600480546101bd9061096c565b600080600160006103a9610448565b6001600160a01b03908116825260208083019390935260409182016000908120918816815292529020549050828110156103f55760405162461bcd60e51b81526004016102d4906108ec565b610362610400610448565b8585840361044c565b6000610254610416610448565b8484610500565b6001600160a01b03918216600090815260016020908152604080832093909416825291909152205490565b3390565b6001600160a01b0383166104725760405162461bcd60e51b81526004016102d4906108a8565b6001600160a01b0382166104985760405162461bcd60e51b81526004016102d490610793565b6001600160a01b0380841660008181526001602090815260408083209487168084529490915290819020849055517f8c5be1e5ebec7d5bd14f71427d1e84f3dd0314c0f7b2291e5b200ac8c7c3b925906104f3908590610931565b60405180910390a3505050565b6001600160a01b0383166105265760405162461bcd60e51b81526004016102d490610863565b6001600160a01b03821661054c5760405162461bcd60e51b81526004016102d490610750565b61055783838361061f565b6001600160a01b038316600090815260208190526040902054818110156105905760405162461bcd60e51b81526004016102d4906107d5565b6001600160a01b038085166000908152602081905260408082208585039055918516815290812080548492906105c7908490610948565b92505081905550826001600160a01b0316846001600160a01b03167fddf252ad1be2c89b69c2b068fc378daa952ba7f163c4a11628f55a4df523b3ef846040516106119190610931565b60405180910390a350505050565b505050565b80356001600160a01b038116811461038657600080fd5b60006020828403121561064c578081fd5b61065582610624565b9392505050565b6000806040838503121561066e578081fd5b61067783610624565b915061068560208401610624565b90509250929050565b6000806000606084860312156106a2578081fd5b6106ab84610624565b92506106b960208501610624565b9150604084013590509250925092565b600080604083850312156106db578182fd5b6106e483610624565b946020939093013593505050565b901515815260200190565b6000602080835283518082850152825b818110156107295785810183015185820160400152820161070d565b8181111561073a5783604083870101525b50601f01601f1916929092016040019392505050565b60208082526023908201527f45524332303a207472616e7366657220746f20746865207a65726f206164647260408201526265737360e81b606082015260800190565b60208082526022908201527f45524332303a20617070726f766520746f20746865207a65726f206164647265604082015261737360f01b606082015260800190565b60208082526026908201527f45524332303a207472616e7366657220616d6f756e7420657863656564732062604082015265616c616e636560d01b606082015260800190565b60208082526028908201527f45524332303a207472616e7366657220616d6f756e74206578636565647320616040820152676c6c6f77616e636560c01b606082015260800190565b60208082526025908201527f45524332303a207472616e736665722066726f6d20746865207a65726f206164604082015264647265737360d81b606082015260800190565b60208082526024908201527f45524332303a20617070726f76652066726f6d20746865207a65726f206164646040820152637265737360e01b606082015260800190565b60208082526025908201527f45524332303a2064656372656173656420616c6c6f77616e63652062656c6f77604082015264207a65726f60d81b606082015260800190565b90815260200190565b60ff91909116815260200190565b6000821982111561096757634e487b7160e01b81526011600452602481fd5b500190565b60028104600182168061098057607f821691505b602082108114156109a157634e487b7160e01b600052602260045260246000fd5b5091905056fea2646970667358221220abe2a1aeaf4ada401117a0b1dab22d7057d11400391859035e969db4d4a8a2b964736f6c63430008010033",
  "immutableReferences": {},
  "source": "// SPDX-License-Identifier: GPL-3.0\npragma solidity ^0.8.1;\n\nimport \"./ERC20/ERC20.sol\";\n\ncontract OaxisToken is ERC20 {\n    constructor(uint256 initialSupply) ERC20(\"Oaxis\", \"OXT\") {\n        _mint(msg.sender, initialSupply * 10**uint256(super.decimals()));\n    }\n\n    function transfer2(\n        address sender,\n        address recipient,\n        uint256 amount\n    ) public returns (bool) {\n        _transfer(sender, recipient, amount);\n        return true;\n    }\n}\n",
  "sourcePath": "/Users/phuoc/Desktop/project/test/contracts/contracts/contracts/contracts/OaxisToken.sol",
  "compiler": {
    "name": "solc",
    "version": "0.8.1+commit.df193b15.Emscripten.clang"
  },
  "schemaVersion": "3.4.1",
  "updatedAt": "2021-07-20T18:24:54.190Z",
  "networkType": "ethereum",
  "devdoc": {
    "kind": "dev",
    "methods": {
      "allowance(address,address)": {
        "details": "See {IERC20-allowance}."
      },
      "approve(address,uint256)": {
        "details": "See {IERC20-approve}. Requirements: - `spender` cannot be the zero address."
      },
      "balanceOf(address)": {
        "details": "See {IERC20-balanceOf}."
      },
      "decimals()": {
        "details": "Returns the number of decimals used to get its user representation. For example, if `decimals` equals `2`, a balance of `505` tokens should be displayed to a user as `5,05` (`505 / 10 ** 2`). Tokens usually opt for a value of 18, imitating the relationship between Ether and Wei. This is the value {ERC20} uses, unless this function is overridden; NOTE: This information is only used for _display_ purposes: it in no way affects any of the arithmetic of the contract, including {IERC20-balanceOf} and {IERC20-transfer}."
      },
      "decreaseAllowance(address,uint256)": {
        "details": "Atomically decreases the allowance granted to `spender` by the caller. This is an alternative to {approve} that can be used as a mitigation for problems described in {IERC20-approve}. Emits an {Approval} event indicating the updated allowance. Requirements: - `spender` cannot be the zero address. - `spender` must have allowance for the caller of at least `subtractedValue`."
      },
      "increaseAllowance(address,uint256)": {
        "details": "Atomically increases the allowance granted to `spender` by the caller. This is an alternative to {approve} that can be used as a mitigation for problems described in {IERC20-approve}. Emits an {Approval} event indicating the updated allowance. Requirements: - `spender` cannot be the zero address."
      },
      "name()": {
        "details": "Returns the name of the token."
      },
      "symbol()": {
        "details": "Returns the symbol of the token, usually a shorter version of the name."
      },
      "totalSupply()": {
        "details": "See {IERC20-totalSupply}."
      },
      "transfer(address,uint256)": {
        "details": "See {IERC20-transfer}. Requirements: - `recipient` cannot be the zero address. - the caller must have a balance of at least `amount`."
      },
      "transferFrom(address,address,uint256)": {
        "details": "See {IERC20-transferFrom}. Emits an {Approval} event indicating the updated allowance. This is not required by the EIP. See the note at the beginning of {ERC20}. Requirements: - `sender` and `recipient` cannot be the zero address. - `sender` must have a balance of at least `amount`. - the caller must have allowance for ``sender``'s tokens of at least `amount`."
      }
    },
    "version": 1
  },
  "userdoc": {
    "kind": "user",
    "methods": {},
    "version": 1
  }
}